:100000000C9456000C9460000C9460000C946000FA
:100010000C9460000C9460000C9460000C946000E0
:100020000C9460000C9460000C9460000C946000D0
:100030000C9460000C9460000C9460000C946000C0
:100040000C9460000C9460000C9460000C946000B0
:100050000C9460000C9460000C9460000C946000A0
:100060000C9460000C9460000C9460000C94600090
:100070000C9460000C9460000C9460000C94600080
:100080000C9460000C9460000C9460000C94600070
:100090000C9460000C9460000C9460000C94600060
:1000A0000C9460000C9460000C94600011241FBE3E
:1000B000CFEFDAE0DEBFCDBF0E9462000C94840077
:1000C0000C94000080E684B987E982BF82E089BD94
:1000D00089B58823E9F31092C3001092C20087E724
:1000E0008093D40081E08093C10081E18093C000BF
:1000F000EFEBF0E083E080838FEF8093D10082E02C
:0C01000080831092D000FFCFF894FFCF56
:00000001FF
